:0400000015EF00F008
:100008004F829EA00AEF00F00CEF00F013EF00F013
:100018009E903C0ECF6E600ECE6E010E3A6E4F92E1
:060028001100A6EF0EF02E
:10100000003F065B4F666D7D077F6F428088C04062
:07101000020000006306006E
:10101800046E000E056E32C001F0010E026E012A48
:1010280018EF08F0D8900236012E16EF08F002509B
:10103800FF0A981632C001F0010E026E012A27EF4E
:1010480008F0D8900236012E25EF08F00250FF0A6A
:101058008F16350EE82EFED700F004A036EF08F004
:1010680038EF08F048EF08F033C001F0010E026EC7
:10107800012A41EF08F0D8900236012E3FEF08F020
:101088000250981266EF08F033C001F0010E026EAC
:10109800012A51EF08F0D8900236012E4FEF08F0E0
:1010A8000250FF0A981633C001F0010E026E012AA1
:1010B80060EF08F0D8900236012E5EEF08F002507B
:1010C800FF0A8F16350EE82EFED700F0D8900430B0
:1010D800046E32C001F0010E026E012A76EF08F0AC
:1010E800D8900236012E74EF08F002509812350E8F
:1010F800E82EFED700F0052A070E056486EF08F0F3
:1011080088EF08F00FEF08F032C001F0010E026E10
:10111800012A91EF08F0D8900236012E8FEF08F0DF
:101128000250FF0A981632C001F0010E026E012A21
:10113800A0EF08F0D8900236012E9EEF08F002507A
:10114800FF0A8F1633C001F0010E026E012AAFEFBD
:1011580008F0D8900236012EADEF08F00250981230
:1011680033C001F0010E026E012ABDEF08F0D890DD
:101178000236012EBBEF08F00250FF0A8F16350E1B
:10118800E82EFED700F032C001F0010E026E012AEF
:10119800D0EF08F0D8900236012ECEEF08F00250BA
:1011A8009812350EE82EFED700F033C001F0010E7C
:1011B800026E012AE2EF08F0D8900236012EE0EF25
:1011C80008F002508614036E0350D8A4EEEF08F01E
:1011D800F0EF08F00EEF09F033C001F0010E026ED7
:1011E800012AF9EF08F0D8900236012EF7EF08F03F
:1011F8000250FF0A981633C001F0010E026E012A50
:1012080008EF09F0D8900236012E06EF09F00250D7
:10121800FF0A8F16350EE82EFED700F032C001F017
:10122800010E026E012A1BEF09F0D8900236012E3A
:1012380019EF09F00250FF0A981632C001F0010EAA
:10124800026E012A2AEF09F0D8900236012E28EF03
:1012580009F00250FF0A8F16350EE82EFED700F06F
:10126800010E1200000E0C6E83EC0EF0420E0CEC18
:1012780008F033C006F0010E076E062A46EF09F0A3
:10128800D8900736062E44EF09F007509812350E0D
:10129800E82EFED700F0000E0B6E32C006F0010EED
:1012A800076E062A5AEF09F0D8900736062E58EF2F
:1012B80009F00750FF0A8F1632C006F0010E076EBC
:1012C800062A69EF09F0D8900736062E67EF09F06D
:1012D8000750FF0A9816350EE82EFED700F0D89072
:1012E8000C3233C006F0010E076E062A7EEF09F0B5
:1012F800D8900736062E7CEF09F0075086140009AF
:10130800D8A489EF09F08BEF09F091EF09F0000EEE
:10131800096E000E086E95EF09F0000E096E800E3A
:10132800086E08500C1232C006F0010E076E062A2D
:10133800A0EF09F0D8900736062E9EEF09F0075067
:101348009812350EE82EFED700F00B2A070E0B6414
:10135800B0EF09F0B2EF09F051EF09F033C006F031
:10136800010E076E062ABBEF09F0D8900736062E45
:10137800B9EF09F00750FF0A981633C006F0010EBE
:10138800076E062ACAEF09F0D8900736062EC8EF6E
:1013980009F00750FF0A8F16350EE82EFED700F029
:1013A80032C006F0010E076E062ADDEF09F0D8906C
:1013B8000736062EDBEF09F00750FF0A981632C0F1
:1013C80006F0010E076E062AECEF09F0D8900736F2
:1013D800062EEAEF09F00750FF0A8F16350EE82EA1
:1013E800FED700F032C006F0010E076E062AFFEFA6
:1013F80009F0D8900736062EFDEF09F0075098122D
:10140800350EE82EFED700F097EC0DF0000E0A6EB0
:101418000C28D8B412EF0AF014EF0AF02BEF0AF0F8
:10142800F70E0D6E0A2A0C500D18D8A41EEF0AF0FC
:1014380020EF0AF022EF0AF02BEF0AF00D06E80E73
:101448000D6029EF0AF02BEF0AF016EF0AF00A50A8
:1014580012003F0E226E420E236E0F0E246E000EF7
:10146800256E210EE82EFED700F0C3EC0EF0980E84
:10147800016E0F0E026E860E036E0F0E046E8F0E37
:10148800056E0F0E066E010E076E020E086E060E32
:10149800096E020E0A6EE0EC0BF0000E396E000EBB
:1014A8003A6E3F0E186E420E196E0F0E1A6E000E2F
:1014B8001B6E630E1C6E000E1D6E000E1E6E000E5F
:1014C8001F6E5CEC0EF0CD803A50D8B46EEF0AF087
:1014D80070EF0AF075EF0AF0392A382A352A000E1B
:1014E8003A6E070E38647BEF0AF07DEF0AF08AEF58
:1014F8000AF03750D8A483EF0AF085EF0AF08AEF94
:101508000AF036EC09F0376E000E386E270E396493
:1015180090EF0AF092EF0AF0ECEF0AF0000E396E45
:10152800010E366E000E356E010E346E010E222647
:10153800000E23222422252225500DE1400E225C94
:10154800420E23580F0E2458D8A0ADEF0AF0AFEF83
:101558000AF0B7EF0AF0000E226E000E236E000E9E
:10156800246E000E256E3750D8A4BDEF0AF0BFEFE9
:101578000AF0D3EF0AF022C018F023C019F024C0F3
:101588001AF025C01BF0630E1C6E000E1D6E000EB7
:101598001E6E000E1F6E5CEC0EF0ECEF0AF037507A
:1015A800186E196A1A6A1B6A630E1C6E000E1D6E8D
:1015B800010E1E6E000E1F6E5CEC0EF0000E376EF4
:1015C800000E386EECEF0AF0000E366E09EF0BF0E5
:1015D8003650206E216A2150000AD8B4F6EF0AF07E
:1015E80009EF0BF02050000AD8B409EF0BF0010AFC
:1015F800D8B4E8EF0AF0030AD8B4E8EF0AF0010A11
:10160800D8B4E8EF0AF009EF0BF03450D8B40FEF74
:101618000BF011EF0BF068EF0AF0DAEC0EF068EF60
:101628000AF015EF00F020EE0EF0050EDE6AE8066F
:10163800FDE22D50D8B423EF0BF026EF0BF0010E8E
:1016480027EF0BF0000E146E000E166E76EF0BF0FF
:10165800410E1624D96EDA6A000EDA22DF50066EC1
:10166800076A010E0624F66E100E0720F76E0800B2
:10167800F5CF15F01450D8A444EF0BF046EF0BF05B
:1016880061EF0BF0410E1624D96EDA6A000EDA22E9
:10169800DF50D8A452EF0BF054EF0BF061EF0BF0D2
:1016A8003050165CD8B05BEF0BF05DEF0BF06DEFD0
:1016B8000BF0000E156E6DEF0BF0010E146E2E5030
:1016C8001618D8A46AEF0BF06CEF0BF06DEF0BF067
:1016D800158E0E0E1624D96EDA6A000EDA2215C09F
:1016E800DFFF162A3150165CD8A07DEF0BF07FEF94
:1016F8000BF02CEF0BF083EC0EF0400E0CEC08F026
:1017080097EC0DF083EC0EF0C00E0CEC08F02C50AA
:10171800D8B491EF0BF093EF0BF0BEEF0BF020EE87
:101728003BF010EE08F0050EDBCFE3FFE806FCE225
:10173800000E166EB3EF0BF0080E1624D96EDA6A97
:10174800000EDA22DF50066E076A0E0E0624D96EE6
:10175800000E0720DA6EDF500CEC08F0162A315024
:10176800165CD8A0BAEF0BF0BCEF0BF0A0EF0BF0B3
:10177800D5EF0BF0000E166ECCEF0BF00E0E162404
:10178800D96EDA6A000EDA22DF500CEC08F0162A5D
:101798003150165CD8A0D3EF0BF0D5EF0BF0C2EFA9
:1017A8000BF097EC0DF083EC0EF02F50880F0CEC3B
:1017B80008F097EC0DF0120001C047F002C048F0A5
:1017C800F4EF0BF0040E316E0DEF0CF0060E316ED7
:1017D8000DEF0CF0060E316E010E2C6E0DEF0CF0B5
:1017E80009500B6E0C6A0C50000AD8B4FEEF0BF0CF
:1017F8000DEF0CF00B50010AD8B4E6EF0BF0070A16
:10180800D8B4EAEF0BF0010AD8B4EEEF0BF00DEF05
:101818000CF03104306E07C033F008C032F00AC053
:101828002FF007C00BF0010E0C6E0B2A1EEF0CF008
:10183800D8900C360B2E1CEF0CF00C50FF0A0D6ED6
:1018480005C0D9FF06C0DAFF0D50DF1608C00BF03F
:10185800010E0C6E0B2A33EF0CF0D8900C360B2EC1
:1018680031EF0CF00C50FF0A0D6E05C0D9FF06C011
:10187800DAFF0D50DF1607C00BF0010E0C6E0B2AB5
:1018880048EF0CF0D8900C360B2E46EF0CF00C50AD
:10189800981208C00BF0010E0C6E0B2A56EF0CF0D4
:1018A800D8900C360B2E54EF0CF00C5098121200F6
:1018B800026E30C005F0000E036EC7EF0CF0000E8C
:1018C800046E05C006F006BE6EEF0CF06CEF0CF06F
:1018D80070EF0CF0C5EF0CF005500618D8A477EFA0
:1018E8000CF079EF0CF091EF0CF0410E0624D96E54
:1018F800DA6A000EDA22050EDF6485EF0CF087EF56
:101908000CF089EF0CF0010E046E410E0624D96E1E
:10191800DA6A000EDA22000EDF6E0650800A016EC7
:101928000550800A015CD8B09CEF0CF09EEF0CF0DB
:10193800C2EF0CF0410E0624D96EDA6A000EDA22E4
:101948000450DF26410E0624D96EDA6A000EDA2228
:10195800090EDF64B2EF0CF0B4EF0CF0C0EF0CF03E
:10196800410E0624D96EDA6A000EDA22000EDF6E06
:10197800010E046EC2EF0CF0000E046E060667EF4F
:101988000CF00506032A0250035CD8A0CEEF0CF039
:10199800D0EF0CF063EF0CF0120030C016F0000E20
:1019A800176EE0EF0CF0410E1724D96EDA6A000EBC
:1019B800DA22000EDF6E172A3150175CD8A0E7EF45
:1019C8000CF0E9EF0CF0D7EF0CF039EF0DF016BE84
:1019D800F0EF0CF0F2EF0CF031EF0DF00EC001F06B
:1019E8000FC002F010C003F011C004F00A0E056E1B
:1019F800000E066E000E076E000E086EDEEC0DF08F
:101A080001C012F002C013F003C014F004C015F0B6
:101A1800410E1624D96EDA6A000EDA2212C0DFFFF0
:101A28000EC001F00FC002F010C003F011C004F0A6
:101A38000A0E056E000E066E000E076E000E086E8A
:101A480045EC0DF001C00EF002C00FF003C010F01D
:101A580004C011F0160639EF0DF0000E0E6E000EE0
:101A68000F6E000E106E000E116E0E500F1010103B
:101A78001110D8A442EF0DF044EF0DF0EBEF0CF08D
:101A88001200000E096E000E0A6E000E0B6E000E9C
:101A98000C6E0550061007100810D8B456EF0DF05C
:101AA80058EF0DF08EEF0DF0010E0D6E62EF0DF098
:101AB800D89005360636073608360D2A08AE67EF81
:101AC8000DF069EF0DF05CEF0DF0D89009360A368D
:101AD8000B360C360550015C065002580750035867
:101AE80008500458D8A07BEF0DF07DEF0DF086EF7D
:101AF8000DF00550015E0650025A0750035A08506F
:101B0800045A0980D89008320732063205320D2E61
:101B180069EF0DF009C001F00AC002F00BC003F034
:101B28000CC004F0120033C001F0010E026E012A4D
:101B3800A0EF0DF0D8900236012E9EEF0DF0025066
:101B4800FF0A981633C001F0010E026E012AAFEFAA
:101B58000DF0D8900236012EADEF0DF00250FF0ABD
:101B68008F16350EE82EFED700F032C001F0010EB8
:101B7800026E012AC2EF0DF0D8900236012EC0EF96
:101B88000DF002509812350EE82EFED700F033C043
:101B980001F0010E026E012AD4EF0DF0D890023642
:101BA800012ED2EF0DF002509812350EE82EFED716
:101BB80000F012000550061007100810D8B4E7EF1F
:101BC8000DF0E9EF0DF019EF0EF0010E096EF3EFCD
:101BD8000DF0D8900536063607360836092A08AEBD
:101BE800F8EF0DF0FAEF0DF0EDEF0DF00550015C98
:101BF800065002580750035808500458D8A007EF59
:101C08000EF009EF0EF011EF0EF00550015E0650D0
:101C1800025A0750035A0850045AD890083207321B
:101C280006320532092EFAEF0DF001C001F002C0AC
:101C380002F003C003F004C004F01200016E01506A
:101C4800D8B429EF0EF02BEF0EF05BEF0EF030C09A
:101C580003F003BE34EF0EF032EF0EF036EF0EF065
:101C68005BEF0EF00150035C026E02BE40EF0EF017
:101C78003EEF0EF04AEF0EF0410E0324D96EDA6AF9
:101C8800000EDA22000EDF6E58EF0EF0410E02242D
:101C9800D96EDA6A000EDA22410E0324E16EE26A96
:101CA800000EE222DFCFE7FF03062DEF0EF0120051
:101CB8001EC02DF01CC02EF018C00EF019C00FF079
:101CC8001AC010F01BC011F0D1EC0CF01D50D8B4A4
:101CD80070EF0EF072EF0EF075EF0EF01D505CEC29
:101CE8000CF01F50D8B47BEF0EF07DEF0EF080EFB4
:101CF8000EF01F5022EC0EF017EC0BF0120033C060
:101D080001F0010E026E012A8CEF0EF0D890023617
:101D1800012E8AEF0EF00250FF0A981633C001F028
:101D2800010E026E012A9BEF0EF0D8900236012EAA
:101D380099EF0EF00250FF0A8F16350EE82EFED7E7
:101D480000F01200D40EF66E1D0EF76E000EF86E3F
:101D580000EE3BF010EE14F00900F5CFEEFFE55071
:101D6800E150FAE100EE26F0150EEE6AE806FDE114
:101D78004F904F92000EF86E00012DEF0AF0F10E11
:101D88000F012317000E866E000E986ED050020EBB
:101D9800CD6E300ECD12CD84600ECE6E3C0ECF6E61
:101DA800010E9D6E9E90C00EF21212003550345CEA
:101DB800D8A0E1EF0EF0E3EF0EF0E6EF0EF08F861D
:101DC800E9EF0EF08F96000E346E12000201000546
:101DD8000403010203040506980F860F8F0F020102
:020000040020DA
:08000000FFFFFFFFFFFFFFFF00
:020000040030CA
:0E0000001D13797C018991FF0FC00FE00F40A6
:00000001FF
