:040000008DEF7FF011
:10FF1A00000190EF7FF0000E866E000E986E520E72
:10FF2A00026E2B0E016E000EE82EFED7012EFCD7B4
:10FF3A00022EFAD700D08686090E026E1E0E016EB8
:10FF4A00E40EE82EFED7012EFCD7022EFAD700D0F7
:10FF5A008696290E026E960E016E7F0EE82EFED749
:10FF6A00012EFCD7022EFAD700F08686520E026EB8
:10FF7A002B0E016E000EE82EFED7012EFCD7022EA4
:10FF8A00FAD700D08696520E026E2B0E016E000E24
:10FF9A00E82EFED7012EFCD7022EFAD700D086888B
:10FFAA00090E026E1E0E016EE40EE82EFED7012E19
:10FFBA00FCD7022EFAD700D08698290E026E960E2A
:10FFCA00016E7F0EE82EFED7012EFCD7022EFAD73D
:10FFDA0000F08688520E026E2B0E016E000EE82E7D
:10FFEA00FED7012EFCD7022EFAD700D0869894EFBE
:06FFFA007FF000EF00F0B3
:020000040020DA
:08000000FFFFFFFFFFFFFFFF00
:020000040030CA
:0E0000001D13797C018991FF0FC00FE00F40A6
:00000001FF
